{
  "_format": "hh-sol-artifact-1",
  "contractName": "EtherStaking",
  "sourceName": "contracts/EtherStaking.sol",
  "abi": [
    {
      "inputs": [],
      "stateMutability": "payable",
      "type": "constructor"
    },
    {
      "anonymous": false,
      "inputs": [
        {
          "indexed": true,
          "internalType": "address",
          "name": "user",
          "type": "address"
        },
        {
          "indexed": false,
          "internalType": "uint256",
          "name": "amount",
          "type": "uint256"
        },
        {
          "indexed": false,
          "internalType": "uint256",
          "name": "withdrawnTime",
          "type": "uint256"
        }
      ],
      "name": "RewardsWithdrawn",
      "type": "event"
    },
    {
      "anonymous": false,
      "inputs": [
        {
          "indexed": true,
          "internalType": "address",
          "name": "user",
          "type": "address"
        },
        {
          "indexed": false,
          "internalType": "uint256",
          "name": "amount",
          "type": "uint256"
        },
        {
          "indexed": false,
          "internalType": "uint256",
          "name": "stakingTime",
          "type": "uint256"
        }
      ],
      "name": "StakingStarted",
      "type": "event"
    },
    {
      "inputs": [
        {
          "internalType": "uint256",
          "name": "amount",
          "type": "uint256"
        },
        {
          "internalType": "uint256",
          "name": "_stakingTime",
          "type": "uint256"
        }
      ],
      "name": "calculateReward",
      "outputs": [
        {
          "internalType": "uint256",
          "name": "",
          "type": "uint256"
        }
      ],
      "stateMutability": "pure",
      "type": "function"
    },
    {
      "inputs": [],
      "name": "rewardBalance",
      "outputs": [
        {
          "internalType": "uint256",
          "name": "",
          "type": "uint256"
        }
      ],
      "stateMutability": "view",
      "type": "function"
    },
    {
      "inputs": [
        {
          "internalType": "uint256",
          "name": "_stakingTime",
          "type": "uint256"
        }
      ],
      "name": "stakeEther",
      "outputs": [],
      "stateMutability": "payable",
      "type": "function"
    },
    {
      "inputs": [
        {
          "internalType": "address",
          "name": "",
          "type": "address"
        }
      ],
      "name": "stakingInfo",
      "outputs": [
        {
          "internalType": "uint256",
          "name": "balance",
          "type": "uint256"
        },
        {
          "internalType": "uint256",
          "name": "time",
          "type": "uint256"
        },
        {
          "internalType": "uint256",
          "name": "reward",
          "type": "uint256"
        }
      ],
      "stateMutability": "view",
      "type": "function"
    },
    {
      "inputs": [],
      "name": "withdraw",
      "outputs": [],
      "stateMutability": "nonpayable",
      "type": "function"
    }
  ],
  "bytecode": "0x60806040523460016000828254610016919061005b565b9250508190555061008f565b6000819050919050565b7f4e487b7100000000000000000000000000000000000000000000000000000000600052601160045260246000fd5b600061006682610022565b915061007183610022565b92508282019050808211156100895761008861002c565b5b92915050565b610dea8061009e6000396000f3fe60806040526004361061004a5760003560e01c806313ed08461461004f5780633ccfd60b1461008c57806394eecb50146100a3578063aa5c3ab4146100e2578063e4f908411461010d575b600080fd5b34801561005b57600080fd5b50610076600480360381019061007191906107ae565b610129565b60405161008391906107fd565b60405180910390f35b34801561009857600080fd5b506100a1610159565b005b3480156100af57600080fd5b506100ca60048036038101906100c59190610876565b6105bb565b6040516100d9939291906108a3565b60405180910390f35b3480156100ee57600080fd5b506100f76105e5565b60405161010491906107fd565b60405180910390f35b610127600480360381019061012291906108da565b6105eb565b005b6000806301e13380905060008184866101429190610936565b61014c91906109a7565b9050809250505092915050565b600073ffffffffffffffffffffffffffffffffffffffff163373ffffffffffffffffffffffffffffffffffffffff16036101c8576040517f08c379a00000000000000000000000000000000000000000000000000000000081526004016101bf90610a35565b60405180910390fd5b60008060003373ffffffffffffffffffffffffffffffffffffffff1673ffffffffffffffffffffffffffffffffffffffff168152602001908152602001600020600001541161024c576040517f08c379a000000000000000000000000000000000000000000000000000000000815260040161024390610aa1565b60405180910390fd5b6000803373ffffffffffffffffffffffffffffffffffffffff1673ffffffffffffffffffffffffffffffffffffffff168152602001908152602001600020600101544210156102d0576040517f08c379a00000000000000000000000000000000000000000000000000000000081526004016102c790610b0d565b60405180910390fd5b60008060003373ffffffffffffffffffffffffffffffffffffffff1673ffffffffffffffffffffffffffffffffffffffff1681526020019081526020016000206000015411610354576040517f08c379a000000000000000000000000000000000000000000000000000000000815260040161034b90610b79565b60405180910390fd5b60008060003373ffffffffffffffffffffffffffffffffffffffff1673ffffffffffffffffffffffffffffffffffffffff168152602001908152602001600020600201546000803373ffffffffffffffffffffffffffffffffffffffff1673ffffffffffffffffffffffffffffffffffffffff168152602001908152602001600020600001546103e49190610b99565b905060008060003373ffffffffffffffffffffffffffffffffffffffff1673ffffffffffffffffffffffffffffffffffffffff1681526020019081526020016000206000018190555060008060003373ffffffffffffffffffffffffffffffffffffffff1673ffffffffffffffffffffffffffffffffffffffff1681526020019081526020016000206001018190555060008060003373ffffffffffffffffffffffffffffffffffffffff1673ffffffffffffffffffffffffffffffffffffffff1681526020019081526020016000206002018190555060003373ffffffffffffffffffffffffffffffffffffffff16826040516104e190610bfe565b60006040518083038185875af1925050503d806000811461051e576040519150601f19603f3d011682016040523d82523d6000602084013e610523565b606091505b5050905080610567576040517f08c379a000000000000000000000000000000000000000000000000000000000815260040161055e90610c5f565b60405180910390fd5b3373ffffffffffffffffffffffffffffffffffffffff167ffa73d3ab3a92ed3f2b694757d8e4b2f3c293654b11b9c79111f8971f861b22b283426040516105af929190610c7f565b60405180910390a25050565b60006020528060005260406000206000915090508060000154908060010154908060020154905083565b60015481565b6000341161062e576040517f08c379a000000000000000000000000000000000000000000000000000000000815260040161062590610cf4565b60405180910390fd5b600061063a3483610129565b9050806001541015610681576040517f08c379a000000000000000000000000000000000000000000000000000000000815260040161067890610d60565b60405180910390fd5b80600160008282546106939190610d80565b92505081905550604051806060016040528034815260200183426106b79190610b99565b8152602001828152506000803373ffffffffffffffffffffffffffffffffffffffff1673ffffffffffffffffffffffffffffffffffffffff1681526020019081526020016000206000820151816000015560208201518160010155604082015181600201559050503373ffffffffffffffffffffffffffffffffffffffff167f3589acab16a3203f768e6da8cbc0e8929ba778e59fed3fbaba23710e336269853484604051610767929190610c7f565b60405180910390a25050565b600080fd5b6000819050919050565b61078b81610778565b811461079657600080fd5b50565b6000813590506107a881610782565b92915050565b600080604083850312156107c5576107c4610773565b5b60006107d385828601610799565b92505060206107e485828601610799565b9150509250929050565b6107f781610778565b82525050565b600060208201905061081260008301846107ee565b92915050565b600073ffffffffffffffffffffffffffffffffffffffff82169050919050565b600061084382610818565b9050919050565b61085381610838565b811461085e57600080fd5b50565b6000813590506108708161084a565b92915050565b60006020828403121561088c5761088b610773565b5b600061089a84828501610861565b91505092915050565b60006060820190506108b860008301866107ee565b6108c560208301856107ee565b6108d260408301846107ee565b949350505050565b6000602082840312156108f0576108ef610773565b5b60006108fe84828501610799565b91505092915050565b7f4e487b7100000000000000000000000000000000000000000000000000000000600052601160045260246000fd5b600061094182610778565b915061094c83610778565b925082820261095a81610778565b9150828204841483151761097157610970610907565b5b5092915050565b7f4e487b7100000000000000000000000000000000000000000000000000000000600052601260045260246000fd5b60006109b282610778565b91506109bd83610778565b9250826109cd576109cc610978565b5b828204905092915050565b600082825260208201905092915050565b7f496e76616c696420616464726573730000000000000000000000000000000000600082015250565b6000610a1f600f836109d8565b9150610a2a826109e9565b602082019050919050565b60006020820190508181036000830152610a4e81610a12565b9050919050565b7f4e6f20457468657220746f207769746864726177000000000000000000000000600082015250565b6000610a8b6014836109d8565b9150610a9682610a55565b602082019050919050565b60006020820190508181036000830152610aba81610a7e565b9050919050565b7f5374616b696e672074696d6520686173206e6f7420656c617073656400000000600082015250565b6000610af7601c836109d8565b9150610b0282610ac1565b602082019050919050565b60006020820190508181036000830152610b2681610aea565b9050919050565b7f5573657220686173206e6f74207374616b656420616e79204574686572000000600082015250565b6000610b63601d836109d8565b9150610b6e82610b2d565b602082019050919050565b60006020820190508181036000830152610b9281610b56565b9050919050565b6000610ba482610778565b9150610baf83610778565b9250828201905080821115610bc757610bc6610907565b5b92915050565b600081905092915050565b50565b6000610be8600083610bcd565b9150610bf382610bd8565b600082019050919050565b6000610c0982610bdb565b9150819050919050565b7f4661696c656420746f2073656e64204574686572000000000000000000000000600082015250565b6000610c496014836109d8565b9150610c5482610c13565b602082019050919050565b60006020820190508181036000830152610c7881610c3c565b9050919050565b6000604082019050610c9460008301856107ee565b610ca160208301846107ee565b9392505050565b7f416d6f756e74206d7573742062652067726561746572207468616e207a65726f600082015250565b6000610cde6020836109d8565b9150610ce982610ca8565b602082019050919050565b60006020820190508181036000830152610d0d81610cd1565b9050919050565b7f496e73756666696369656e74207265776172642062616c616e63650000000000600082015250565b6000610d4a601b836109d8565b9150610d5582610d14565b602082019050919050565b60006020820190508181036000830152610d7981610d3d565b9050919050565b6000610d8b82610778565b9150610d9683610778565b9250828203905081811115610dae57610dad610907565b5b9291505056fea264697066735822122018709146ec96884d6d68f902be6da708f56254515a9d20569c1cd9586fa001d064736f6c63430008180033",
  "linkReferences": {},
  "deployedLinkReferences": {}
}